:100000001FC043C03DC241C040C0F0C13EC03DC062
:100010003CC03BC03AC039C038C037C036C0C8A1A8
:10002000A827AD308D140000000038000202020243
:100030000202010204081020010300000400220350
:1000400011241FBECFE5D2E0DEBFCDBF10E0A0E699
:10005000B0E0E8E7F8E002C005900D92A836B107DD
:10006000D9F720E0A8E6B0E001C01D92A239B2079E
:10007000E1F710E0C0E2D0E003C02197FE01F4D325
:10008000CF31D107D1F74ED2F5C3BACF3FB7F894ED
:100090008091890090918A00A0918B00B0918C0092
:1000A00022B708B601FE05C02F3F19F00196A11D29
:1000B000B11D3FBFBA2FA92F982F8827BC01CD01B2
:1000C000620F711D811D911D43E0660F771F881F10
:1000D000991F4A95D1F70895E0917E00F0917F0035
:1000E0000994E0917C00F0917D000994E0918000FA
:1000F000F0918100099580E4F4CF80E0F2DF811176
:1001000004C0EADFF3DF80E0ECDF80918F008F5FD7
:1001100080938F000895E0918000F091810009950F
:1001200080E0DFCF1F93CF93DF93D82F10918E0005
:10013000C0918D00C80FC77080916300C82BEBDFA2
:100140008C2FCFDF812F82958F708061CADF812F46
:100150008F70C7DFC1DF10929000D0939100109292
:100160008F00DF91CF911F91089510927A0088E758
:100170008093680081E00895E0917A00E13148F4CD
:10018000EF5FE0937A00F0E0E859FF4F808381E071
:10019000089580E0089590E0FC01E85CFF4F349101
:1001A000FC01EE5CFF4F2491FC01E45DFF4FE49104
:1001B000EE23B9F0332329F03130A1F48AB58F77DB
:1001C0008ABDF0E0EE0FFF1FEA5DFF4FA591B491ED
:1001D0008FB7611118C0F894EC9120952E232C93C1
:1001E0008FBF0895323019F48AB58F7DE9CF33304F
:1001F00021F480B78F7D80BFE4CF343011F78CB508
:100200008F7D8CBDDECFF894EC912E2BE8CFC29A77
:10021000C29BFECF8DE08A95F1F70000C0988AE07E
:100220008A95F1F700C0C298C09A779905C083E01B
:1002300080937B0080E0089581E008958EB98BE281
:100240009DE09A95F1F700008DB9B29BFECF9AE040
:100250009A95F1F700C08DB9769BF2CF8DE08A9523
:10026000F1F700008FB19FEF9FB9B89A0895CF9230
:10027000DF92EF92FF920F931F93CF93DF93009142
:100280007A0081E080937B008091680080FD03C04C
:1002900083E080937B00BBDF882311F10F5F102F79
:1002A000C8E6D0E0DD24DA94CC24C3947E018FEF3D
:1002B000E81AF80A80917B00837009F44AC0C2985A
:1002C00088818FB980EFBADFB8988EEFB7DF909151
:1002D0007B0080FF12C081E090FF82E080937B0072
:1002E00010927A0080917B00DF91CF911F910F9146
:1002F000FF90EF90DF90CF900895892F8570843024
:1003000061F480916800816080936800C0927B00F6
:100310007EDF81112AC08AE0E1CF9E7F90937B002F
:10032000E701115009F0C2CF10927A00C098C29A2A
:10033000B29BFECF8AE08A95F1F700C0C09A8DE0AB
:100340008A95F1F70000759914C084E080937B00D2
:10035000CBCFB89880EF72DF8883113021F4DFB8FB
:100360008EEF6CDFDDCF1FB8FBCF102FC8E6D0E0DB
:10037000D8CF80E0B9CFCF92DF92EF92FF92CF93A8
:10038000DF93C09AC29ABA9AB89A8FEF8FB98AE26D
:100390008DB980EF8EB9E9DE6ADF882301F176DE60
:1003A000EB018AE0C82ED12CE12CF12C6FDE6C1B06
:1003B0007D0B683E734068F0C114D104E104F10480
:1003C00051F381E0C81AD108E108F108C851DC4FA7
:1003D000EDCFC114D104E104F10441F7DCCFDF918A
:1003E000CF91FF90EF90DF90CF9008951F920F92E2
:1003F0000FB60F9211242F933F938F939F93AF9338
:10040000BF938091850090918600A0918700B09164
:1004100088003091840026E0230F2D3768F129E809
:10042000230F0396A11DB11D2093840080938500A6
:1004300090938600A0938700B093880080918900F4
:1004400090918A00A0918B00B0918C000196A11D23
:10045000B11D8093890090938A00A0938B00B09384
:100460008C00BF91AF919F918F913F912F910F90F1
:100470000FBE0F901F9018950296A11DB11DD4CFED
:100480001F920F920FB60F9211242F933F934F9309
:100490005F936F937F938F939F93AF93BF93CF930C
:1004A000DF93EF93FF9385B78F7D85BF80E03ADEC2
:1004B0008091610090919000D82FD91B49F08093D2
:1004C000900014DEC0E019DECF5FDC13FCCF04DE49
:1004D00081E028DE8091610090919000D82FD91B97
:1004E00049F08093900002DEC0E007DECF5FDC13AE
:1004F000FCCFF2DDAB980FDE8FEAF3DDEDDDFF918F
:10050000EF91DF91CF91BF91AF919F918F917F91AB
:100510006F915F914F913F912F910F900FBE0F9070
:100520001F90189580E886BD81E086BD83E08ABD76
:1005300083BF789489B7826089BF80E48CBD8FEFD8
:100540008DBD87EC80BF86E886B937988FB7F89461
:10055000BB98C39A8FBF61E083E01DDE8FB7F8942C
:10056000BC9A8FBF60E084E016DE89EAC80E83E0A3
:10057000D81EE11CF11CC114D104B9F3C701B601A6
:100580008827992711D18CE180938E0010928D00DD
:1005900088E48093610085E080936200E0918200AE
:1005A000F09183000995B7DDCEE1D0E0FE01F49033
:1005B0008F2D97DD811104C08FDDADDD8F2D91DD95
:1005C0002196F0E0C632DF0789F786DDA4DD86EDEF
:1005D00088DD81E086DD80DD9EDD80EC82DD80EAE5
:1005E00080DD7ADDF090600080E2F826F092600015
:1005F00092DD8F2D76DD70DD8091630094E0892798
:100600008093630088DD8FEA6CDD66DDF12C8091DC
:100610006200F816A0F48F2D85DD80916100909125
:100620009000D82FD91B49F0809390005FDDC0E087
:1006300064DDCF5FDC13FCCF4FDDF394E8CF80E0C7
:1006400071DDFFCF8BEB91E090938300809382006C
:1006500085EB90E090938100809380008CEB90E09C
:1006600090937D0080937C0087E391E090937F00DE
:1006700080937E0008958F929F92AF92BF92CF9207
:10068000DF92EF92FF92CF93DF93EC016881798143
:100690008A819B81611571058105910521F464E2D0
:1006A00079ED8BE597E02DE133EF41E050E09ED00E
:1006B00049015A0127EA31E440E050E07ED06B0165
:1006C0007C012CEE34EF4FEF5FEFC501B40175D024
:1006D000C60ED71EE81EF91EF7FE06C081E0C81A36
:1006E000D108E10880E8F80AC882D982EA82FB8250
:1006F000C701B6019F77DF91CF91FF90EF90DF9018
:10070000CF90BF90AF909F908F9008958F929F92BF
:10071000AF92BF92CF92DF92EF92FF92609164000E
:100720007091650080916600909167006115710578
:100730008105910521F464E279ED8BE597E02DE1E7
:1007400033EF41E050E052D049015A0127EA31E449
:1007500040E050E032D06B017C012CEE34EF4FEFE3
:100760005FEFC501B40129D0C60ED71EE81EF91EE1
:10077000F7FE06C081E0C81AD108E10880E8F80A4F
:10078000C0926400D0926500E0926600F09267002B
:10079000C701B6019F77FF90EF90DF90CF90BF9099
:1007A000AF909F908F900895609364007093650060
:1007B00080936600909367000895EE27FF27AA278D
:1007C000BB2708C0A20FB31FE41FF51F220F331F62
:1007D000441F551F969587957795679598F37040B8
:1007E000A9F7009799F7BD01CF010895052E97FB52
:1007F00016F400940FD057FD05D014D007FC02D09A
:1008000046F408C050954095309521953F4F4F4F85
:100810005F4F089590958095709561957F4F8F4FAC
:100820009F4F0895A1E21A2EAA1BBB1BFD010DC00C
:10083000AA1FBB1FEE1FFF1FA217B307E407F50790
:1008400020F0A21BB30BE40BF50B661F771F881F6C
:10085000991F1A9469F760957095809590959B0102
:10086000AC01BD01CF010895EE0FFF1F0590F4917B
:08087000E02D0994F894FFCF7C
:08087800408004B00100000003
:00000001FF
