:100000008AC2AEC2FBC6ACC2ABC2AEC6A9C2A8C24F
:10001000A7C2A6C2A5C2A4C2A3C2A2C2A1C2000511
:100020000A0080404040C020E020204060E0FCF416
:1000300062418060707E71606C606067F7FF0000F5
:100040000A9440402020E020E020204060E0FCF2C4
:1000500061408060707E71606C606067F7FF0000D7
:100060000000A0410080C0800000000800000000E7
:100070007048545453555441424C506A0400000097
:10008000000082410080C0800000000810000000D5
:100090007048545453555441424C50680400000079
:1000A000000082050080C0800000002810000000D1
:1000B0007048545453555441424C5068000000005D
:1000C00000000A040080C0800000002050000000F2
:1000D0007048545453555441424C50600000000045
:1000E000000008140080C080000000A04000000054
:1000F0007048545453555441424C50600000000025
:10010000000028100080C080000000804000000037
:100110007048545453555441424C50600100000003
:10012000000020500080C08000000080000000001F
:100130007048545453555441424C506201000000E1
:10014000708806A1A6848426210EF8000000000015
:10015000000F798462292265897B06000000000077
:10016000708806A1A6848426210EF80000000000F5
:10017000000F798462252365897B0600000000005A
:10018000708806A1A6848426210EF80000000000D5
:10019000000F798462232365897B06000000007CC0
:1001A000820141613D050101827C020504020201D8
:1001B000010101010000007C8209096161610909F6
:1001C000827C020504020201010101010000007CA1
:1001D0008209092121210909827C02050402020108
:1001E000010101010000007C823149455D5D453916
:1001F000827C020504020201010101010000007C71
:100200008229111131111129827C02050402020197
:10021000010101010000007C821919391975710171
:10022000827C020504020201010101010000007C40
:1002300082011D3D01713919827C0205040202010F
:10024000010101010000007C821D634B63634B3D93
:10025000827C020504020201010101010000007C10
:10026000820101456D7D3901827C02050402020193
:10027000010101010000007C82011D3D793D1D014D
:10028000827C020504020201010101010000007CE0
:100290008201010101010101827C020504020201C7
:1002A000010101010000006C928131327131F2E9EB
:1002B00001926C10040A04010608080408080403EB
:1002C000006C928101020101020101926C10040A8A
:1002D00004010608080408080403000000000000E8
:1002E0000000000000000010040A040000000000EC
:1002F00000000000000000000000000000000000FE
:1003000000100000000000000000000000000000DD
:100310007088062126848426218E38C000000000C3
:1003200000077985652220608079040300000000C1
:100330007088062126848426210E78800000000023
:10034000000779856522206080790403000002009F
:1003500070C84621E68484E6214EF80000020400BD
:100360000007788661202060837C0700000200047B
:1003700070888641468484C6418EF80004000002DD
:10038000000F708C6320206186780F000100000050
:100390007088064126848426410EF800000000047F
:1003A0000A1924C0906060804033241800000000C7
:1003B0007088064126848426410EF8000000000360
:1003C0000509708060202020C099F2140800000008
:1003D0007088063126848426310EF8000000000261
:1003E000050C7080602020608079090A04000000FC
:1003F0007088063126848426310EF800000000043F
:100400000A097080602020608079121408000102BF
:100410007088063116848416310EF8000402000C30
:1004200012097C80602020608079090503000002A9
:100430007088063116848416310EF800040000031B
:10044000050970806020206080F912140800000007
:100450007088062126848426210EF80000000004FE
:100460000A1924C090606080403324180000000006
:100470007088062126848426210EF80000000003DF
:100480000509708060202020C099F2140800C8A1DE
:10049000A827AD308D143E001E001E01FE00DE00B8
:1004A000BE009E007E005E007E015E013E018E0267
:1004B0009E018E02CE01B6018E02FE01E6018E0281
:1004C00016028E0276022E028E0246028E025E0214
:1004D0008E027602F402DA02C002A6022E030E0396
:1004E0006E034E03AE038E03EE03CE032E040E0402
:1004F0006E044E04000000003700000000003800C9
:10050000020202020202010204081020010300009C
:1005100004009C0B030C11241FBECFE5D2E0DEBF0C
:10052000CDBF10E0A0E6B0E0ECEBFCE102C005902E
:100530000D92A637B107D9F720E0A6E7B0E001C0D9
:100540001D92A23CB207E1F712E0CAE8D2E003C074
:100550002197FE017CDAC938D107D1F78BD4A2CB21
:100560004FCD3FB7F8948091A0009091A100A09149
:10057000A200B091A30022B708B601FE05C02F3F2C
:1005800019F00196A11DB11D3FBFBA2FA92F982FB9
:100590008827BC01CD01620F711D811D911D43E0B3
:1005A000660F771F881F991F4A95D1F708952FB7B7
:1005B000F89460919C0070919D0080919E009091B4
:1005C0009F002FBF0895E0918E00F0918F00099455
:1005D000E0918C00F0918D000994E0918A00F091F7
:1005E0008B000994CF93C82FF3DF811106C0EBDF96
:1005F000F4DF80E4EDDF8C2FEBDF8091B9008F5FBB
:100600008093B900CF910895CF93DF93D82F809135
:10061000BD008D0F8093BD00E0DF80E4D9DFC0E036
:10062000DC1721F080E0DEDFCF5FFACFDF91CF91E2
:10063000CACFD3DF80E0CCCF0F931F93CF93DF934C
:10064000082F162FD091BC00D80FC091BB00C60F49
:10065000C77080916300C82BECDF8C2FB9DF8D2F22
:1006600082958F708061B4DF8D2F8F70B1DFABDF2B
:100670000093BD001093BA001092B900DF91CF91A2
:100680001F910F910895CF93C82FD3DF8C2FA0DF38
:10069000CF9199CFCF92DF92EF92FF92CF93DF93DA
:1006A000EC0185DFCF80D884E984FA846C197D0958
:1006B0008E099F0921E0CB84DC84ED84FE846C15D7
:1006C0007D058E059F0508F420E0822FDF91CF91F4
:1006D000FF90EF90DF90CF9008958091B7009091B8
:1006E000B8001816190614F481E0089584EA90E021
:1006F000D1DF8823C9F38091A40091E08927089570
:100700008F929F92AF92BF92CF92DF92EF92FF9221
:100710000F931F93CF93DF93EC01BCDF882371F01D
:100720008D818F5F8D839E81891718F01D8281E0F6
:1007300088833DDF6F83788789879A87CB801C14F5
:100740000CF044C08D8190E0880F991F2F85388967
:10075000820F931FFC01E080F1801A8189800C8157
:1007600002950F70010F912CB12C0C2C000CDD08A0
:100770000117E8F0612F882D5FDF2FDF80E428DF8D
:10078000C92DDB2D8C2F89198C151D045CF45701A4
:10079000AC0EBD1EF501849125DFF501849122DFA9
:1007A0002196F0CF10DF1F5F9C2EBD2EE1CF60E0C1
:1007B00080E0DF91CF911F910F91FF90EF90DF903C
:1007C000CF90BF90AF909F908F9036CFDF91CF9119
:1007D0001F910F91FF90EF90DF90CF90BF90AF905F
:1007E0009F908F90089560E080E026DF84E10CDF29
:1007F00061E080E021DF84E107DF60E084E31CDF6B
:1008000084E102DF61E084E317DF84E1FDCE2F9213
:100810003F924F925F926F927F928F929F92AF9290
:10082000BF92CF92DF92EF92FF920F931F93CF93DD
:10083000DF932B013C01BBDEDC019B01AD0160E0DD
:1008400070E080E090E0A0909300B0909400C090A1
:100850009500D0909600E0909700F090980000915D
:10086000990010919A00E1D81201E1E05101630171
:10087000E12CF12C00E010E0E1D809F008F4E0E010
:100880008E2FDF91CF911F910F91FF90EF90DF900E
:10089000CF90BF90AF909F908F907F906F905F9020
:1008A0004F903F902F9008951092880088E7809392
:1008B000760081E00895E0918800E13148F4EF5F2F
:1008C000E0938800F0E0EA58FF4F808381E00895CC
:1008D00080E008958F929F92AF92BF92CF92DF9265
:1008E000EF92FF920F931F93CF93DF93EC01862E2D
:1008F000942E5901188219821A821B821C821D8231
:100900001F82188619861A860E83CB86DC86ED86B2
:10091000FE864DDE6F83788789879A87C801880FA6
:10092000991F9BD88F87988BDC0190E080E0FC01B9
:10093000EE0FFF1FEA0DFB1D259134912D933D9382
:1009400001960817190799F789821A829B8280E11C
:100950008C831882DF91CF911F910F91FF90EF90C0
:10096000DF90CF90BF90AF909F908F90089590E0D0
:10097000FC01E45FFA4F3491FC01EA5FFA4F2491E5
:10098000FC01E050FB4FE491EE23B9F0332329F052
:100990003130A1F48AB58F778ABDF0E0EE0FFF1FEA
:1009A000E650FB4FA591B4918FB7611118C0F89430
:1009B000EC9120952E232C938FBF0895323019F49B
:1009C0008AB58F7DE9CF333021F480B78F7D80BF2A
:1009D000E4CF343011F78CB58F7D8CBDDECFF89429
:1009E000EC912E2BE8CF8EEA4EDE60E084E0BFDF94
:1009F0008BB780628BBFAB9A85B7877E806185BFDE
:100A000085B7806285BF88950895CF93DF9390E086
:100A1000FC01EA5FFA4F249180509B4FFC018491C6
:100A20008823D1F090E0880F991FFC01EC50FB4F18
:100A3000A591B491FC01E650FB4FC591D491623071
:100A400071F49FB7F8943C91822F809583238C9307
:100A5000E8812E2B28839FBFDF91CF9108958FB718
:100A6000F894EC912E2B2C938FBFF6CFCF92DF9280
:100A7000EF92FF926B017C01C114D104E104F104F7
:100A800031F00FD7A701960192D76B017C01C70106
:100A9000B601FF90EF90DF90CF900895C29AC29B6D
:100AA000FECF8DE08A95F1F70000C0988AE08A9524
:100AB000F1F700C0C298C09A779905C083E080938F
:100AC000890080E0089581E008958EB98BE29DE071
:100AD0009A95F1F700008DB9B29BFECF9AE09A95F6
:100AE000F1F700C08DB9769BF2CF8DE08A95F1F7D2
:100AF00000008FB19FEF9FB9B89A0895CF92DF920F
:100B0000EF92FF920F931F93CF93DF930091880092
:100B100081E0809389008091760080FD03C083E0AE
:100B200080938900BBDF882311F10F5F102FC6E788
:100B3000D0E0DD24DA94CC24C3947E018FEFE81A50
:100B4000F80A80918900837009F44AC0C2988881AC
:100B50008FB980EFBADFB8988EEFB7DF9091890038
:100B600080FF12C081E090FF82E0809389001092A4
:100B7000880080918900DF91CF911F910F91FF90A4
:100B8000EF90DF90CF900895892F8570843061F4C5
:100B900080917600816080937600C09289007EDF2C
:100BA00081112AC08AE0E1CF9E7F90938900E701FE
:100BB000115009F0C2CF10928800C098C29AB29B1F
:100BC000FECF8AE08A95F1F700C0C09A8DE08A9541
:100BD000F1F70000759914C084E080938900CBCFB1
:100BE000B89880EF72DF8883113021F4DFB88EEF80
:100BF0006CDFDDCF1FB8FBCF102FC6E7D0E0D8CF1A
:100C000080E0B9CFCF92DF92EF92FF92CF93DF9344
:100C1000C09AC29ABA9AB89A8FEF8FB98AE28DB900
:100C200080EF8EB941DE6ADF882301F19ADCEB01A7
:100C30008AE0C82ED12CE12CF12C93DC6C1B7D0BAF
:100C4000683E734068F0C114D104E104F10451F32B
:100C500081E0C81AD108E108F108C851DC4FEDCF96
:100C6000C114D104E104F10441F7DCCFDF91CF914D
:100C7000FF90EF90DF90CF90089596B381E0292FF9
:100C8000287093FD80E080939200211109C061E0FB
:100C900084E0BBDE8CB580628CBD80E18BBD0895A5
:100CA00060E084E064CEDF92EF92FF920F931F9397
:100CB000CF93DF93EC018B018617970709F444C0AB
:100CC0008F859889009709F064D7D8011696DC9033
:100CD000ED2CF12CC701880F991FBFD68F87988BF9
:100CE000FC0190E080E08E159F0580F49C01220FAE
:100CF000331FD8011F964D915C91DA01A20FB31FEB
:100D00002D913C91219331930196EDCFF80185818E
:100D10008D83DE8283859485A585B6858B879C87A8
:100D2000AD87BE8787819085A185B2858F8398879F
:100D3000A987BA878181898382818A8383818B8312
:100D400084818C8380818883CE01DF91CF911F9134
:100D50000F91FF90EF90DF900895FC0187859089B7
:100D6000009709F016C708951F920F920FB60F92C1
:100D700011242F933F938F939F93AF93BF938091B1
:100D80009C0090919D00A0919E00B0919F00309199
:100D90009B0026E0230F2D3768F129E8230F0396E7
:100DA000A11DB11D20939B0080939C0090939D00FA
:100DB000A0939E00B0939F008091A0009091A1000D
:100DC000A091A200B091A3000196A11DB11D809336
:100DD000A0009093A100A093A200B093A300BF91A4
:100DE000AF919F918F913F912F910F900FBE0F90D8
:100DF0001F9018950296A11DB11DD4CF1F920F927E
:100E00000FB60F9211242F933F934F935F936F93DD
:100E10007F938F939F93AF93BF93EF93FF9385B788
:100E20008F7D85BF60E080E007DC8091610090915C
:100E3000BD00891B09F0E8DB61E080E0FDDB80910B
:100E400061009091BD00891B09F0DEDBAB988FEA51
:100E50001ADCFF91EF91BF91AF919F918F917F919C
:100E60006F915F914F913F912F910F900FBE0F9017
:100E70001F901895CF93DF93CDB7DEB7A2970FB62B
:100E8000F894DEBF0FBECDBF80E886BD81E086BD91
:100E900083E08ABD83BF789489B7826089BF80E48C
:100EA0008CBD8FEF8DBD87EC80BF86E886B9379803
:100EB00062E083E0AADD61E083E059DD61E084E087
:100EC000A4DD60E084E053DD8E010F5F1F4F380129
:100ED000912C812C5801C4013BD5F30181933F0132
:100EE000FFEF8F1A9F0A24E082169104A1F78981EF
:100EF0009A81AB81BC814196A11DB11D0097D9F3A8
:100F000089839A83AB83BC83BC01CD018827992751
:100F100016D5912C812CF80161918F01C40120D547
:100F2000FFEF8F1A9F0A24E082169104A1F78CE14B
:100F30008093BC001092BB0088E48093610085E040
:100F400080936200E0919000F0919100099571DB2F
:100F50000EE814E056E9652E54E0752EF8019490E1
:100F6000892D36DB811104C02EDB63DB892D30DB5C
:100F70000F5F1F4F6016710689F725DB5ADB86ED80
:100F800027DB81E025DB1FDB54DB80EC21DB80EA03
:100F90001FDB19DB8091600090E28927809360005D
:100FA00072DB8091630094E08927809363008FEA6D
:100FB0006ADB10E080916200181760F4612F80E016
:100FC0003BDB809161009091BD00891B09F01CDB27
:100FD0001F5FF0CF60E080E02FDB9924939413E053
:100FE000812E02E0702E85E0682E97E0592E24E0D5
:100FF000422E36E0332E4AE0242EE091B500EB304D
:10100000F0F7F0E0EB5FF74F09940AC056C0B1C0AB
:10101000E5C018C174C1A8C114C2B0C2E6C227C3DA
:1010200060E67AEE80E090E0F2DB8823B1F0209277
:10103000B500BDDA8B019C0160939300109394007E
:10104000809395003093960010929700109298002C
:101050001092990010929A00D0CF87E0EEE6F0E06F
:10106000DE01529601900D928A95E1F767E070E0FB
:1010700080E090E0FBDC22E130E02C0F3D1F620FAE
:10108000731FFB0180818093B500F50129E0119267
:101090002A95E9F79A827B828C824D826E823F820A
:1010A000588668E070E080E090E0E0DC6A0D7B1D2F
:1010B000FB0180818093B600A0CFB0E2CB2EB3E0DD
:1010C000DB2EE12CF12C02E010E020EF34E040E1D7
:1010D00050E064E170E0C501FDDBB50184EA90E019
:1010E000E2DDC5013ADE60E273E080E090E0BEDC64
:1010F00068537F4F8F4F9F4F7093B8006093B70036
:10110000ECDA882351F18091B7009091B8000197F3
:101110009093B8008093B700B0DD8091920088234F
:1011200021F168EC70E080E090E071DB8823E9F069
:101130003EDA8B019C01609393001093940080939E
:10114000950030939600109297001092980010929C
:10115000990010929A005092B5008091B5008130AC
:1011600009F04BCF1092B50048CF84EA90E0C8DA7E
:10117000C7CFA0E9CA2EDD24D394E12CF12C02E0E4
:1011800010E02CEE34E040E150E064E170E0C50195
:10119000A1DBB50184EA90E086DDC501DEDD68EC07
:1011A00070E080E090E062DC6C597F4F8F4F9F4F82
:1011B0007093B8006093B70090DA882309F449C2AD
:1011C0008091B7009091B80001979093B8008093F8
:1011D000B70053DD84EA90E093DAEECFF8ECCF2E3F
:1011E000D12CE12CF12C02E010E028EE34E040E1BB
:1011F00050E064E170E0C5016DDBB50184EA90E088
:1012000052DDC501AADD64E670E080E090E02EDCEE
:101210006C597F4F8F4F9F4F7093B8006093B7000A
:101220005CDA882309F415C228DD84EA90E068DAE4
:101230008091B7009091B80001979093B800809387
:10124000B700EECF60E971E080E090E00FDC6C5910
:101250007F4F8F4F9F4F7093B8006093B700E0E2CD
:10126000CE2EE3E0DE2EE12CF12C02E010E024EEA5
:1012700034E040E150E064E170E0C5012BDBB501F2
:1012800084EA90E010DDC50168DD27DA882359F192
:101290008091B7009091B80001979093B800809327
:1012A000B700EBDC80919200882329F168EC70E0B4
:1012B00080E090E0ACDA8823F1F079D98B019C01D1
:1012C0006093930010939400809395003093960060
:1012D00010929700109298001092990010929A0024
:1012E000F8E0F093B5008091B500883009F485CE20
:1012F0006092B50082CE84EA90E002DAC6CF70E94F
:10130000C72EDD24D394E12CF12C02E010E020EE76
:1013100034E040E150E064E170E0C501DBDAB501A2
:1013200084EA90E0C0DCC50118DD60E971E080E08E
:1013300090E09CDB6C597F4F8F4F9F4F7093B800AC
:101340006093B700CAD9882309F483C196DC8091E1
:10135000B7009091B80001979093B8008093B700C0
:1013600084EA90E0CDD9EECF50E9C52EDD24D394A8
:10137000E12CF12C02E010E02CED34E040E150E0F3
:1013800064E070E0C501A6DAB50184EA90E08BDC88
:10139000C501E3DC60EBC62E64E0D62EE12CF12C17
:1013A00004E010E024ED34E04DE050E064E270E051
:1013B000C50190DA60E971E080E090E057DB6C599C
:1013C0007F4F8F4F9F4F7093B8006093B700198283
:1013D000898181112AC08091B7009091B80000974F
:1013E00021F101979093B8008093B70046DC80917B
:1013F0009200882301F168EC70E080E090E007DA69
:101400008823C9F0D4D88B019C016093930010937A
:10141000940080939500309396001092970010925C
:1014200098001092990010929A00DDD99092B50020
:10143000C50193DCE2CD84EA90E062D9C50160D9B0
:10144000C7CF40E2C42E43E0D42EE12CF12C02E0C1
:1014500010E020EF34E040E150E064E070E0C501CE
:1014600039DAB50184EA90E01EDCC50176DC1A8A1F
:101470001B8A1C8A1D8A1E8A1F8A188E198E1A8E34
:101480001B8E1C8E1D8E1E8E1F8E18A2E091B60024
:10149000E83010F5F0E0EC5AF54F30E2C32E33E0BF
:1014A000D32EE12CF12C099407C041C03BC044C0AD
:1014B00034C047C04BC04FC002E010E020ED34E024
:1014C0004CE050E064E270E0C50104DAB501CE0101
:1014D0004296E9DBC50141DC60E971E080E090E023
:1014E000C5DA6C597F4F8F4F9F4F7093B800609350
:1014F000B700F3D88823A1F1C0DB8091B7009091A9
:10150000B80001979093B8008093B70084EA90E008
:10151000F7D8CE014296F4D8ECCF02E010E02CECE4
:1015200034E0CECF02E010E028EC34E0C9CF03E095
:1015300010E022EC34E0C4CF02E010E02EEB34E007
:10154000BFCF03E010E028EB34E0BACF03E010E0B7
:1015500022EB34E0B5CF02E010E02EEA34E0B0CF69
:101560008A89811105C0CE01429694D8882321F240
:101570003AD99092B500CE0142965BCF20E2C22EBE
:1015800023E0D22EE12CF12C02E010E028EA34E036
:1015900040E150E064E170E0C5019CD9B50184EA06
:1015A00090E081DBC501D9DB64EF71E080E090E081
:1015B0005DDA68537F4F8F4F9F4F7093B8006093F1
:1015C000B7008BD8882371F08091B7009091B80054
:1015D00001979093B8008093B7004FDB84EA90E0C6
:1015E0008FD8EFCF7092B50008CD94E6C92ED12CDC
:1015F000E12CF12C07E010E02AE934E040E150E072
:1016000064E170E0C50166D9B50184EA90E04BDB86
:10161000C501A3DB32DB809192008823E9F068ECFE
:1016200070E080E090E0F3D88823B1F0C0D78B0160
:101630009C016093930010939400809395003093E5
:1016400096001092970010929800109299001092B4
:101650009A009092B500D1CC60E67AEE80E090E0FE
:10166000D6D88111C0D984EA90E04AD8D3CF80EB94
:10167000C82E84E0D82EE12CF12C02E010E026E9FF
:1016800034E040E150E064E170E0C50123D9B501E8
:1016900084EA90E008DBC50160DB1092B80010928C
:1016A000B70085D78B019C01609393001093940041
:1016B00080939500309396001092970010929800B6
:1016C0001092990010929A0060E67AEE80E090E025
:1016D0009ED881112FC08091B7009091B8000196DB
:1016E0009093B8008093B700C8DA80919200882365
:1016F000E9F068EC70E080E090E089D88823B1F0F0
:1017000056D78B019C0160939300109394008093B3
:1017100095003093960010929700109298001092C6
:10172000990010929A008092B50067CC84EA90E00C
:10173000E7D7CACF58D98DCFCF92DF92EF92FF92E1
:101740000F931F93CF93DF93CDB7DEB761970FB69B
:10175000F894DEBF0FBECDBF82E096E0909391007B
:101760008093900084E594E090938B0080938A00AE
:101770008BE594E090938D0080938C008EE795E04C
:1017800090938F0080938E00E4EAF0E01082118243
:101790001282138214821582168217821086118695
:1017A0001286138614861586168681E0818B128A2E
:1017B000148A138A80E2C82E83E0D82EE12CF12C03
:1017C00002E010E020EF34E040E150E064E170E03E
:1017D000CE0101967FD8BE016F5F7F4F84EA90E013
:1017E00062DACE010196B9DA61960FB6F894DEBFDF
:1017F0000FBECDBFDF91CF911F910F91FF90EF9062
:10180000DF90CF90089584EA90E0A7CA8F929F92CC
:10181000AF92BF92CF92DF92EF92FF92CF93DF937E
:10182000EC01688179818A819B816115710581054F
:10183000910521F464E279ED8BE597E02DE133EF3A
:1018400041E050E0B4D049015A0127EA31E440E0D8
:1018500050E094D06B017C012CEE34EF4FEF5FEF42
:10186000C501B4018BD0C60ED71EE81EF91EF7FEC7
:1018700006C081E0C81AD108E10880E8F80AC882E9
:10188000D982EA82FB82C701B6019F77DF91CF91AF
:10189000FF90EF90DF90CF90BF90AF909F908F9090
:1018A00008958F929F92AF92BF92CF92DF92EF9264
:1018B000FF92609164007091650080916600909144
:1018C0006700611571058105910521F464E279EDE8
:1018D0008BE597E02DE133EF41E050E068D049011E
:1018E0005A0127EA31E440E050E048D06B017C0126
:1018F0002CEE34EF4FEF5FEFC501B4013FD0C60EC1
:10190000D71EE81EF91EF7FE06C081E0C81AD108EE
:10191000E10880E8F80AC0926400D0926500E09285
:101920006600F0926700C701B6019F77FF90EF90C5
:10193000DF90CF90BF90AF909F908F90089560936D
:10194000640070936500809366009093670008952B
:10195000E199FECF9FBB8EBBE09A99278DB3089586
:10196000262FE199FECF1CBA9FBB8EBB2DBB0FB6B5
:10197000F894E29AE19A0FBE01960895EE27FF27A8
:10198000AA27BB2708C0A20FB31FE41FF51F220F11
:10199000331F441F551F969587957795679598F344
:1019A0007040A9F7009799F7BD01CF010895052E62
:1019B00097FB16F400940FD057FD05D014D007FC08
:1019C00002D046F408C050954095309521953F4F80
:1019D0004F4F5F4F089590958095709561957F4F1B
:1019E0008F4F9F4F0895A1E21A2EAA1BBB1BFD012A
:1019F0000DC0AA1FBB1FEE1FFF1FA217B307E407EE
:101A0000F50720F0A21BB30BE40BF50B661F771F45
:101A1000881F991F1A9469F7609570958095909525
:101A20009B01AC01BD01CF0108952A193B094C0966
:101A30005D096E097F09800B910B08952A153B05FE
:101A40004C055D056E057F05800791070895EE0F33
:101A5000FF1F0590F491E02D09940F931F93CF93EE
:101A6000DF938230910510F482E090E0E091C000B5
:101A7000F091C10030E020E0B0E0A0E0309799F4B0
:101A80002115310509F44AC0281B390B24303105D2
:101A9000D8F58A819B816115710589F1FB019383DA
:101AA0008283FE0111C04081518102811381481758
:101AB0005907E0F04817590799F4109761F012960A
:101AC0000C93129713961C933296CF01DF91CF910E
:101AD0001F910F9108950093C0001093C100F4CF9F
:101AE0002115310551F04217530738F0A901DB01E8
:101AF0009A01BD01DF01F801C1CFEF01F9CF909349
:101B0000C1008093C000CDCFFE01E20FF31F81938F
:101B100091932250310939832883D7CF2091BE0079
:101B20003091BF00232B41F420916A0030916B006B
:101B30003093BF002093BE0020916800309169006F
:101B40002115310541F42DB73EB740916C005091FD
:101B50006D00241B350BE091BE00F091BF00E21731
:101B6000F307A0F42E1B3F0B2817390778F0AC01C0
:101B70004E5F5F4F2417350748F04E0F5F1F50939D
:101B8000BF004093BE00819391939FCFF0E0E0E0CF
:101B90009CCFCF93DF930097E9F0FC01329713823B
:101BA0001282A091C000B091C100ED0130E020E0B0
:101BB0001097A1F420813181820F931F2091BE00E4
:101BC0003091BF002817390709F061C0F093BF00BA
:101BD000E093BE00DF91CF910895EA01CE17DF07B1
:101BE000E8F54A815B819E0141155105B1F7E90194
:101BF000FB83EA8349915991C40FD51FEC17FD0768
:101C000061F4808191810296840F951FE901998387
:101C10008883828193819B838A83F0E0E0E012963F
:101C20008D919C9113970097B9F52D913C91119747
:101C3000CD010296820F931F2091BE003091BF000C
:101C40002817390739F6309751F51092C1001092D4
:101C5000C000B093BF00A093BE00BCCFD383C283AB
:101C600040815181840F951FC817D90761F44E5FD9
:101C70005F4F88819981480F591F518340838A8122
:101C80009B81938382832115310509F0B0CFF093B6
:101C9000C100E093C0009ECFFD01DC01C0CF1382E4
:101CA0001282D7CF12E0CAE8D2E003C0FE01CFDE35
:0C1CB0002196CB38D107D1F7F894FFCF74
:101CBC00408004B0010000000000C200800001025E
:061CCC00030406080900F4
:00000001FF
